:040000008031132810
:100008007E14803120007F08AE008B1A0B1D0E284D
:100018008131252120002E08FF007E100900803143
:10002800152883308400823085001200A700120052
:10003800A8001200A9001200AA001200AB00A0013B
:10004800A101A201A301A401A501A6017E1020001F
:1000580081319729FB007B08F600F7017608F0004C
:100068007708F1000730F2000030F30082315B229C
:1000780080317108850070088400ED308407813074
:10008800853D0008F80020000E087806FE3978063D
:100098008E007B08F600F7017608F0007708F1007B
:1000A8000730F2000030F30082315B2280317008A3
:1000B800013EF8000030713DF900ED30780784000A
:1000C8008130793D85000008FA00FA0D20000E08FD
:1000D8007A06FD397A068E007B08F600F701760865
:1000E800F0007708F1000730F2000030F3008231A9
:1000F8005B2280317008023EF8000030713DF90043
:10010800ED30780784008130793D85000008FA00D9
:10011800FA0DFA0D20000E087A06FB397A068E00D1
:100128007B08F600F7017608F0007708F100073041
:10013800F2000030F30082315B2280317008033E08
:10014800F8000030713DF900ED3078078400813007
:10015800793D85000008FA00FA0DFA0DFA0D200025
:100168000E087A06F7397A068E007B08F600F70142
:100178007608F0007708F1000730F2000030F3004D
:1001880082315B2280317008043EF8000030713DF6
:10019800F900ED30780784008130793D850000084A
:1001A800FA00FA0E20000E087A06EF397A068E0059
:1001B8007B08F600F7017608F0007708F1000730B1
:1001C800F2000030F30082315B2280317008053E76
:1001D800F8000030713DF900ED3078078400813077
:1001E800793D85000008FA00FA0EFA0D20000E0885
:1001F8007A06DF397A068E007B08F600F701760862
:10020800F0007708F1000730F2000030F300823187
:100218005B227008063EF8000030713DF900ED30B1
:10022800780784008130793D85000008FA00FA0ECD
:10023800FA0DFA0D20000E087A06BF397A068E00EC
:1002480008000B110630200095000D128D120D13B9
:100258008D130130A0070030A13D0130AD002D08FD
:10026800A4070A302406031D3F29A4012B082607EA
:10027800AD002D08AB0001302102F5300319200232
:10028800031C5629143022020318562903108E1F06
:100298000314031C522920008E17542920008E13A2
:1002A800A001A10123082507AD002D08A300FA30FD
:1002B8002302031C6C29A3010130AD002D08A207FD
:1002C800FA302206031D6C291530AD002D08A20056
:1002D8000130A7022708031D75290430AD002D0839
:1002E800A70014302202031C7C29823189220800CD
:1002F80020002703031D82298D178F290230270626
:10030800031D88290D178F2903302706031D8E2901
:100318008D168F290D162708AD002D08FC002830F2
:100328008231762208008231332281318B172000F6
:100338000C1DAC2915302202031CA7290C19A2296F
:10034800A201A301AC29A601A60AA201A301A50145
:100358000C1EB72915302202031CB429A201A301DF
:10036800A601A501A50A8C1EC62915302202031C68
:10037800C0298C1ABD29C429A801A901AA01AB0169
:10038800A201A3010A302B06031DD1292A0826073A
:10039800AF002F08AA00AB019B290A302A06031DCB
:1003A800DC29AA0129082607AF002F08A9009B29E4
:1003B8000A302906031DE729A90128082607AF00E6
:1003C8002F08A8009B2906302806031D9B29A80191
:1003D8009B290034003400340034003400340134E4
:1003E8000134003400340134013401340134003460
:1003F8000034013400340034013400340034003453
:100408000034003401340134003401340034003441
:100418000134013400340034003401340034003431
:100428000134003400340034013400340034003422
:100438000034003400340034003401340134013411
:100448000134003400340034003400340034003403
:100458000034003400340134013400340034210005
:1004680019088739703899009917FC309905951241
:1004780095111508F83904389500063020009500C4
:100488000B118B168D130D138D120D128E17230061
:100498008C018D018E0126008C018D018E01FF30AB
:1004A80021008C008D018E01823188220800F40120
:1004B800F501701C632A7208F4077308F53D0130D2
:1004C800F235F30D890B642A0130F136F00C890BF3
:1004D800692A70087104031D5D2A7508F100740803
:1004E800F00008002000AC007C08FF3E2C07FD004F
:1004F8007D0886008701010880312E200800043419
:0C050800053404340334023408000800F9
:020000040001F9
:04000E00E4C9FFFE44
:00000001FF
