:08000000803102288731FD2F39
:100D340008308731062708002100190887397038E0
:100D440099009917FC30990523008C018D018E01BF
:100D540026008C018D018E01FF3021008C00FF30B4
:100D64008D0080308E0086319A260800F401F5014A
:100D7400701CC02E7208F4077308F53D0130F2357B
:100D8400F30D890BC12E0130F136F00C890BC62E00
:100D940070087104031DBA2E7508F1007408F00080
:100DA4000800FB01FB0A86319E268631FC2E0C1EB0
:100DB400EA2E07307B06031DE12EFB01FB0A0130FE
:100DC400FA007A08FB0786319A2686310730F72E17
:100DD4007B08873106278631FC2E0130FA007A0819
:100DE400FB0786319A26863110307B06031DFC2EC4
:100DF400FB01FB0A20008C1AD92E0C1AEF2E7B085B
:100E0400873106278631FC2EF9007908FF3EF00071
:100E1400FF3003180030F1000730F2000030F30017
:100E24008631B82687317108850070088400003047
:100E340084078830853D0008F60020000E087606F9
:100E4400FE3976068E007908FF3EF000FF30031865
:100E54000030F1000730F2000030F3008631B8268C
:100E640087317008013EF6000030713DF700003014
:100E7400760784008830773D85000008F800F80D77
:100E840020000E087806FD3978068E007908FF3EAA
:100E9400F000FF3003180030F1000730F20000309A
:100EA400F3008631B82687317008023EF600003020
:100EB400713DF7000030760784008830773D850067
:100EC4000008F800F80DF80D20000E087806FB392C
:100ED40078068E007908FF3EF000FF3003180030DA
:100EE400F1000730F2000030F3008631B826873174
:100EF4007008033EF6000030713DF70000307607BD
:100F040084008830773D85000008F800F80DF80D5E
:100F1400F80D20000E087806F73978068E00790857
:100F2400FF3EF000FF3003180030F1000730F200FC
:100F34000030F3008631B82687317008043EF6008D
:100F44000030713DF7000030760784008830773D2B
:100F540085000008F800F80E20000E087806EF3926
:100F640078068E007908FF3EF000FF300318003049
:100F7400F1000730F2000030F3008631B8268731E3
:100F84007008053EF6000030713DF700003076072A
:100F940084008830773D85000008F800F80EF80DCD
:100FA40020000E087806DF3978068E007908FF3EA7
:100FB400F000FF3003180030F1000730F200003079
:100FC400F3008631B8267008063EF6000030713D05
:100FD400F7000030760784008830773D85000008EC
:100FE400F800F80EF80DF80D20000E087806BF3949
:100FF40078068E00080020008631D32E0034003499
:10100400003401340034003400340034003401343A
:101014000134003401340034003400340134013428
:101024000134003400340134003401340034013418
:101034000034013401340034013401340134003407
:1010440001340134013401340034013401340134F5
:1010540000340034003401340134013401340034E8
:1010640000340034003400340034003400340034DC
:1010740000340134013400340034003400340134C9
:1010840001340034003400340134013400340034B9
:1010940000340034003400340134013400340034AA
:1010A4000034013401340034003400340034013499
:1010B4000134003401340134003400340034003489
:0E10C4000034013401340134003400340034AF
:020000040001F9
:04000E00E4C9FFFE44
:00000001FF
