:08000000803102288731FD2F39
:100D5E0020000E108E100E118E110E128E120E130A
:100D6E00080023008C018D018E0126008C018D015F
:100D7E008E01FF3021008C00FF308D0080308E0000
:100D8E008631AF260800F401F501701CD22E7208D0
:100D9E00F4077308F53D0130F235F30D890BD32EB0
:100DAE000130F136F00C890BD82E70087104031D3A
:100DBE00CC2E7508F1007408F0000800FB01FB0A48
:100DCE008631B8268631FF2E0C1EFB2E0130FA001E
:100DDE007A08FB078631AF26863107307B06031D66
:100DEE00FF2EFB01FB0AFF2E7B088731062786317B
:100DFE0020008C1AEB2E8631AF268631FF2EF9009D
:100E0E007908FF3EF000FF3003180030F100073084
:100E1E00F2000030F3008631CA2687317108850052
:100E2E0070088400003084078830853D0008F60085
:100E3E0020000E087606FE3976068E007908FF3EF3
:100E4E00F000FF3003180030F1000730F2000030E0
:100E5E00F3008631CA2687317008013EF600003055
:100E6E00713DF7000030760784008830773D8500AD
:100E7E000008F800F80D20000E087806FD397806F7
:100E8E008E007908FF3EF000FF3003180030F100AD
:100E9E000730F2000030F3008631CA268731700821
:100EAE00023EF6000030713DF700003076078400F8
:100EBE008830773D85000008F800F80DF80D200009
:100ECE000E087806FB3978068E007908FF3EF00092
:100EDE00FF3003180030F1000730F2000030F3004D
:100EEE008631CA2687317008033EF6000030713D08
:100EFE00F7000030760784008830773D85000008C3
:100F0E00F800F80DF80DF80D20000E087806F739E8
:100F1E0078068E007908FF3EF000FF30031800308F
:100F2E00F1000730F2000030F3008631CA26873117
:100F3E007008043EF6000030713DF7000030760771
:100F4E0084008830773D85000008F800F80E2000F8
:100F5E000E087806EF3978068E007908FF3EF0000D
:100F6E00FF3003180030F1000730F2000030F300BC
:100F7E008631CA2687317008053EF6000030713D75
:100F8E00F7000030760784008830773D8500000832
:100F9E00F800F80EF80D20000E087806DF397806F6
:100FAE008E007908FF3EF000FF3003180030F1008C
:100FBE000730F2000030F3008631CA267008063E74
:100FCE00F6000030713DF70000307607840088305F
:100FDE00773D85000008F800F80EF80DF80D20009A
:100FEE000E087806BF3978068E000800200086317C
:100FFE00E52E003400340034013400340034003463
:10100E000134003400340034003400340134003430
:10101E00003401340134013400340034013400341E
:10102E00013400340134003401340134003401340D
:10103E0001340134003401340134013401340034FC
:06104E00013401340134FD
:020000040001F9
:04000E00E4C9FFFE44
:00000001FF
